:020000040800F2
:10000000002800207D1200081D10000823100008A1
:10001000291000082F10000835100008000000000B
:100020000000000000000000000000003B1000087D
:100030004710000800000000531000085F1000087F
:10004000C5120008C5120008C5120008C512000834
:10005000C5120008C5120008C5120008C512000824
:10006000C5120008C5120008C5120008C512000814
:10007000C5120008C5120008C5120008C512000804
:10008000C5120008C5120008C5120008C5120008F4
:10009000C5120008C5120008C5120008C5120008E4
:1000A000C5120008C5120008C5120008C5120008D4
:1000B0006D100008C512000800000000C5120008FD
:1000C000C51200080000000000000000C512000872
:1000D00000000000C5120008C51200080000000062
:1000E000C5120008C5120008C51200080000000073
:1000F0000000000000000000000000000000000000
:0C01000000000000000000005FF808F1A3
:10010C0010B5054C237833B9044B13B10448AFF345
:10011C0000800123237010BD2C0000200000000083
:10012C00F028000808B5034B1BB103490348AFF393
:10013C00008008BD0000000030000020F0280008FE
:10014C0080B582B000AF78607B68092B00F28081AB
:10015C0001A252F823F000BF8D010008D501000860
:10016C001D02000865020008AD020008F502000837
:10017C003D03000885030008CD03000815040008A2
:10018C0000220121B44801F09CFB00220221B2485C
:10019C0001F097FB00220421AF4801F092FB0022F2
:1001AC000821AD4801F08DFB00221021AA4801F076
:1001BC0088FB00222021A84801F083FB012240216A
:1001CC00A54801F07EFB43E101220121A24801F088
:1001DC0078FB00220221A04801F073FB00220421CD
:1001EC009D4801F06EFB012208219B4801F069FB40
:1001FC0001221021984801F064FB0122202196482D
:10020C0001F05FFB01224021934801F05AFB1FE1F2
:10021C0000220121904801F054FB002202218E485B
:10022C0001F04FFB012204218B4801F04AFB002214
:10023C000821894801F045FB00221021864801F075
:10024C0040FB01222021844801F03BFB002240218D
:10025C00814801F036FBFBE0002201217E4801F0D1
:10026C0030FB002202217C4801F02BFB00220421F0
:10027C00794801F026FB00220821774801F021FB88
:10028C0001221021744801F01CFB0122202172482C
:10029C0001F017FB002240216F4801F012FBD7E060
:1002AC00012201216C4801F00CFB002202216A485A
:1002BC0001F007FB00220421674801F002FB012238
:1002CC000821654801F0FDFA01221021624801F075
:1002DC00F8FA00222021604801F0F3FA00224021B4
:1002EC005D4801F0EEFAB3E0002201215A4801F01A
:1002FC00E8FA01220221584801F0E3FA0022042115
:10030C00554801F0DEFA00220821534801F0D9FAD1
:10031C0001221021504801F0D4FA002220214E482D
:10032C0001F0CFFA002240214B4801F0CAFA8FE0CD
:10033C0000220121484801F0C4FA0122022146485A
:10034C0001F0BFFA00220421434801F0BAFA00225E
:10035C000821414801F0B5FA002210213E4801F075
:10036C00B0FA002220213C4801F0ABFA00224021D7
:10037C00394801F0A6FA6BE000220121364801F061
:10038C00A0FA00220221344801F09BFA0022042139
:10039C00314801F096FA012208212F4801F091FA18
:1003AC00012210212C4801F08CFA012220212A482C
:1003BC0001F087FA01224021274801F082FA47E038
:1003CC0000220121244801F07CFA0022022122485B
:1003DC0001F077FA002204211F4801F072FA002282
:1003EC0008211D4801F06DFA002210211A4801F075
:1003FC0068FA00222021184801F063FA00224021FB
:10040C00154801F05EFA23E001221021124801F098
:10041C0058FA00220121104801F053FA002202215F
:10042C000D4801F04EFA002204210B4801F049FA64
:10043C0000220821084801F044FA00222021064835
:10044C0001F03FFA00224021034801F03AFA00BFC4
:10045C0000BF0837BD4680BD000C014080B582B09E
:10046C0000AF7860554B1B68032B00F28B8001A208
:10047C0052F823F091040008CF0400080D05000881
:10048C004B0500084D4B1B684D4A52F8233018465B
:10049C00FFF756FE002240214A4801F012FA0122D1
:1004AC008021484801F00DFA01224FF48071454833
:1004BC0001F007FA01224FF40071424801F001FAF1
:1004CC0077E03E4B1B683E4A52F823301846FFF744
:1004DC0037FE012240213B4801F0F3F90022802134
:1004EC00384801F0EEF901224FF48071354801F0E3
:1004FC00E8F901224FF40071324801F0E2F958E0BA
:10050C002E4B1B682E4A52F823301846FFF718FE64
:10051C00012240212B4801F0D4F9012280212948E5
:10052C0001F0CFF900224FF48071264801F0C9F98F
:10053C0001224FF40071234801F0C3F939E01F4B3D
:10054C001B681F4A52F823301846FFF7F9FD0122A9
:10055C0040211C4801F0B5F901228021194801F015
:10056C00B0F901224FF48071164801F0AAF900226B
:10057C004FF40071134801F0A4F9104B4FF0FF3207
:10058C001A6016E0012240210E4801F09AF901226E
:10059C0080210C4801F095F901224FF48071094833
:1005AC0001F08FF901224FF40071064801F089F92E
:1005BC0000BF00BF0837BD4680BD00BFB80000209B
:1005CC00BC0000200008014080B500AF01220121D1
:1005DC00074801F076F900220221054801F071F973
:1005EC0000220421024801F06CF900BF80BD00BF5D
:1005FC000008014080B500AF00220121074801F03E
:10060C0060F901220221054801F05BF90022042166
:10061C00024801F056F900BF80BD00BF0008014040
:10062C0080B500AF00220121074801F04AF90022F1
:10063C000221054801F045F901220421024801F08C
:10064C0040F900BF80BD00BF0008014080B500AF7D
:10065C00364B1B68364A93420BD0354A93425CDCCE
:10066C00032B41D0032B58DC012B0BD0022B22D0B7
:10067C0053E02E4B01221A602E4B1B68184600F0DB
:10068C0013FD51E0FFF7A0FF2B4B1B68012B46D14C
:10069C00264B02221A60294B1B68184600F004FDF9
:1006AC00264B1B68264A82FB03125211DB17D31A06
:1006BC00244A136033E0FFF79DFF1F4B1B68012B8F
:1006CC002FD11A4B03221A601F4B1B68184600F0DF
:1006DC00EBFC1D4B1B681A4A82FB03125211DB17F1
:1006EC00D31A184A13601CE0FFF79AFF124B1B68D1
:1006FC00012B18D10D4B01221A600E4B1B681846AA
:10070C0000F0D2FC0B4B1B680D4A82FB03125211FA
:10071C00DB17D31A0B4A136005E000BF04E000BFDF
:10072C0002E000BF00E000BF00BF80BD0000002061
:10073C00225B60010C000020D4000020140000207B
:10074C001F85EB51100000201C00002080B500AF6D
:10075C0001220821074801F0B4F8002210210548B5
:10076C0001F0AFF800222021024801F0AAF800BFE6
:10077C0080BD00BF0008014080B500AF00220821F9
:10078C00074801F09EF801221021054801F099F864
:10079C0000222021024801F094F800BF80BD00BF68
:1007AC000008014080B500AF00220821074801F085
:1007BC0088F800221021054801F083F8012220213D
:1007CC00024801F07EF800BF80BD00BF0008014068
:1007DC0080B500AF364B1B68364A93420BD0354A76
:1007EC0093425CDC032B41D0032B58DC012B0BD048
:1007FC00022B22D053E02E4B02221A602E4B1B6888
:10080C00184600F065FC51E0FFF7A0FF2B4B1B686E
:10081C00012B46D1264B02221A60274B1B68184627
:10082C0000F056FC244B1B68254A82FB0312521124
:10083C00DB17D31A234A136033E0FFF79DFF1F4BDE
:10084C001B68012B2FD11A4B03221A601E4B1B68FD
:10085C00184600F03DFC1C4B1B68194A82FB031226
:10086C005211DB17D31A174A13601CE0FFF79AFFDB
:10087C00124B1B68012B18D10D4B01221A60134B24
:10088C001B68184600F024FC104B1B680C4A82FBBA
:10089C0003125211DB17D31A0A4A136005E000BF8A
:1008AC0004E000BF02E000BF00E000BF00BF80BD5D
:1008BC0004000020225B600114000020DC000020FA
:1008CC001F85EB51180000201C0000200C0000209C
:1008DC0080B500AF954B1B68954A934241D0944A22
:1008EC00934200F31A81642B0ED0642B00F3158114
:1008FC000D2B00F0D3800D2B00F30F810B2B3AD076
:10090C000C2B00F0828008E18A4B1B68012B0CD168
:10091C00894B1B68013B884A1360884B1B68013B61
:10092C00864A1360642000F0ABFB854B1B68012BDF
:10093C0040F0F580824B00221A60824B63221A60D1
:10094C00814B63221A60794B0B221A607F4B1B6818
:10095C007F4A82FB03125211DB17D31A774A1360BA
:10096C00DDE0784B724A1A60774B714A1A606F4B14
:10097C0064221A60F3E0FFF727FEFFF7E7FE6F4BE8
:10098C001B68632B02DD6D4B00221A606A4B01223F
:10099C001A606B4B1B68012B0FD1694B00221A603C
:1009AC006C4B1B686A4A82FB03125211DB17D31A79
:1009BC00624A13605D4B0C221A60614B5B68012B21
:1009CC0007D15F4B00225A605C4B1B6801335B4ABA
:1009DC0013605B4B9B68012B07D1594B00229A602B
:1009EC00564B1B68013B554A1360554BDB68012B7A
:1009FC0040F09780524B0022DA60504B1B68642207
:100A0C0002FB03F3514A13608BE0FFF7F3FDFFF792
:100A1C00B3FE4A4B1B68632B02DD484B00221A6065
:100A2C00454B02221A60464B1B68012B0FD1444BDD
:100A3C0000221A60484B1B68454A82FB0312521174
:100A4C00DB17D31A3D4A1360384B0D221A603C4B0E
:100A5C005B68012B07D13A4B00225A60374B1B685D
:100A6C000133364A1360364B9B68012B07D1344B4C
:100A7C0000229A60314B1B68013B304A1360304BAB
:100A8C00DB68012B4FD12E4B0022DA602B4B1B68FD
:100A9C00642202FB03F32F4A136044E0FFF7C0FD0E
:100AAC00FFF780FE254B1B68632B02DD234B0022D6
:100ABC001A60214B03221A60214B1B68012B05D1B4
:100ACC001F4B00221A60194B194A1A601C4B5B68A9
:100ADC00012B07D11A4B00225A60184B1B680133AB
:100AEC00164A1360164B9B68012B07D1144B00223E
:100AFC009A60124B1B68013B104A1360104BDB6869
:100B0C00012B2BD10E4B0022DA600C4B1B6864229C
:100B1C0002FB03F3104A136020E000BF1FE000BF8C
:100B2C001DE000BF1BE000BF19E000BF0800002063
:100B3C00225B6001CC000020100000201800002077
:100B4C005800002000000020040000200C000020B1
:100B5C001F85EB51140000201C00002000BF00BFBB
:100B6C0080BD00BF80B483B000AF0346FB71FB793E
:100B7C00044A012142F8231000BF0C37BD4680BC4B
:100B8C00704700BF5800002090B583B000AF002321
:100B9C00FB7197E0FA79FB794F49895C4F4AD15444
:100BAC00FA79FB794E49895C4B4AD154FB79032B7A
:100BBC0036D801A252F823F0D50B0008EB0B000835
:100BCC00010C0008170C0008FC794FF480514548C3
:100BDC0000F060FE03461A46414B1A5525E0FC799D
:100BEC004FF400513F4800F055FE03461A463C4B6B
:100BFC001A551AE0FC794FF480413A4800F04AFE4D
:100C0C0003461A46364B1A550FE0FC794FF4004157
:100C1C00344800F03FFE03461A46314B1A5504E0A7
:100C2C00FB792F4A0121D15400BFFB792B4AD25CAE
:100C3C00FB792949CB5C9A4241D1FB79264AD25C9B
:100C4C00FB792749CB5C9A4239D1FB79264AD25C95
:100C5C00FB792349CB5C9A4214D0FA79FB79204971
:100C6C00895C214AD154FB791F4AD35C002B26D1D5
:100C7C00FB791E4A642122F81310FB791846FFF702
:100C8C0071FF1CE0FB79194A32F81320013A91B23A
:100C9C00164A22F81310FB79144A32F81330002B41
:100CAC000DD1FB79104AD35C002B08D1FB790F4A8C
:100CBC00642122F81310FB791846FFF753FFFB79D8
:100CCC000133FB71FB79032B7FF664AF00BF00BFD0
:100CDC000C37BD4690BD00BF500000204C000020DA
:100CEC00540000200008014048000020680000204B
:100CFC0080B500AF00F0E2FA00F02EF800F068F8D2
:100D0C0000F0B2F8114801F02DFA012000F0B8F90A
:100D1C00022000F0F1F9FFF799FCFFF759FDFFF7FE
:100D2C00D7FD0B4B1B68012BF5D1094B00221A6028
:100D3C0000F05EFA074B1B685A1C06490A601846FD
:100D4C00FFF78CFB052000F0D7F9E4E770000020DA
:100D5C00E4000020B800002080B590B000AF07F18F
:100D6C00180328220021184601F090FD3B1D00229B
:100D7C001A605A609A60DA601A610223BB6101231F
:100D8C00BB621023FB6200237B6307F11803184638
:100D9C0000F0B0FD0346002B01D000F0DEF80F236D
:100DAC007B600023BB600023FB6000233B610023BE
:100DBC007B613B1D0021184601F01EF80346002BF9
:100DCC0001D000F0CAF800BF4037BD4680BD00001E
:100DDC0080B586B000AF07F1080300221A605A6094
:100DEC009A60DA603B4600221A605A601D4B4FF045
:100DFC0080421A601B4B41F63F725A60194B00221D
:100E0C009A60184B0922DA60164B00221A61154BB6
:100E1C0080229A61134801F055F90346002B01D04A
:100E2C0000F09BF84FF48053BB6007F108031946A0
:100E3C000C4801F0EBFA0346002B01D000F08DF8C2
:100E4C0000233B6000237B603B461946054801F0BC
:100E5C00B3FC0346002B01D000F07FF800BF18371D
:100E6C00BD4680BD7000002080B586B000AF07F194
:100E7C00080300221A605A609A60DA60284B9B695A
:100E8C00274A43F004039361254B9B6903F0040349
:100E9C007B607B68224B9B69214A43F0080393617A
:100EAC001F4B9B6903F008033B603B68002240F238
:100EBC00FF311C4800F005FD00227F211A4800F08C
:100ECC0000FD40F2FF33BB600123FB6000233B615C
:100EDC0002237B6107F108031946124800F05EFB00
:100EEC007F23BB600123FB6000233B6102237B61FA
:100EFC0007F1080319460C4800F050FB4FF47043FF
:100F0C00BB600023FB6001233B6107F1080319461A
:100F1C00044800F043FB00BF1837BD4680BD00BF3E
:100F2C000010024000080140000C014080B582B066
:100F3C0000AF78607B681B68B3F1804F09D100F07B
:100F4C00EFF800F007F900F01FF900F037F9FFF7A0
:100F5C001BFE00BF0837BD4680BD80B400AF72B623
:100F6C0000BFFEE780B485B000AF154B9B69144AF7
:100F7C0043F001039361124B9B6903F00103BB60C7
:100F8C00BB680F4BDB690E4A43F08053D3610C4BAB
:100F9C00DB6903F080537B607B680A4B5B68FB600A
:100FAC00FB6823F0E063FB60FB6843F08063FB604D
:100FBC00044AFB68536000BF1437BD4680BC7047C1
:100FCC00001002400000014080B584B000AF786092
:100FDC007B681B68B3F1804F13D10C4BDB690B4A58
:100FEC0043F00103D361094BDB6903F00103FB60A0
:100FFC00FB68002200211C2000F099FA1C2000F054
:10100C00B2FA00BF1037BD4680BD00BF00100240D1
:10101C0080B400AFFEE780B400AFFEE780B400AF51
:10102C00FEE780B400AFFEE780B400AFFEE780B40B
:10103C0000AF00BFBD4680BC704780B400AF00BF9E
:10104C00BD4680BC704780B400AF00BFBD4680BCBD
:10105C00704780B500AF00F077F900BF80BD00008D
:10106C0080B500AF024801F0C9F800BF80BD00BFD9
:10107C007000002080B400AF00BFBD4680BC70473C
:10108C0080B483B000AF7860054A7B681360054B71
:10109C0000221A6000BF0C37BD4680BC704700BFF1
:1010AC00D0000020CC00002080B483B000AF78606A
:1010BC00054A7B681360054B00221A6000BF0C3791
:1010CC00BD4680BC704700BFD8000020D400002073
:1010DC0080B483B000AF7860054A7B681360054B21
:1010EC0000221A6000BF0C37BD4680BC704700BFA1
:1010FC00E0000020DC00002080B483B000AF7860FA
:10110C00054A7B681360054B00221A6000BF0C3740
:10111C00BD4680BC704700BFE8000020E400002002
:10112C0080B400AF094B1B68002B0BDD074B1B6811
:10113C00013B064A1360054B1B68002B02DC044B79
:10114C0001221A6000BFBD4680BC7047D000002051
:10115C00CC00002080B400AF094B1B68002B0BDDCA
:10116C00074B1B68013B064A1360054B1B68002BA1
:10117C0002DC044B01221A6000BFBD4680BC7047E4
:10118C00D8000020D400002080B400AF094B1B68AD
:10119C00002B0BDD074B1B68013B064A1360054B0C
:1011AC001B68002B02DC044B01221A6000BFBD46F9
:1011BC0080BC7047E0000020DC00002080B400AF51
:1011CC00094B1B68002B0BDD074B1B68013B064AC8
:1011DC001360054B1B68002B02DC044B01221A60C8
:1011EC0000BFBD4680BC7047E8000020E400002032
:1011FC0080B400AF1A4B1B681A4A82FB0312921080
:10120C00DB17D31A184A1360154B1968154B83FB5F
:10121C0001239A10CB17D21A13469B0013445B0080
:10122C00CA1A114B5A60114B1B680E4A82FB0312EF
:10123C009210DB17D31A0C4A93600C4B1968094BAC
:10124C0083FB01239A10CB17D21A13469B0013442D
:10125C005B00CA1A044BDA6000BFBD4680BC704705
:10126C001000002067666666BC0000201800002095
:10127C000C480D490D4A002302E0D458C4500433E5
:10128C00C4188C42F9D30A4A0A4C002301E01360BB
:10129C000432A242FBD3FFF7EDFE01F0FFFAFFF799
:1012AC0027FD7047000000202C000020302900088A
:1012BC002C000020F0000020FEE7000080B500AFFD
:1012CC00084B1B68074A43F010031360032000F01F
:1012DC0023F90F2000F008F8FFF744FE002318460E
:1012EC0080BD00BF0020024080B582B000AF7860A6
:1012FC00124B1A68124B1B7819464FF47A73B3FBD6
:10130C00F1F3B2FBF3F3184600F03BF90346002B64
:10131C0001D001230EE07B680F2B0AD800227968DC
:10132C004FF0FF3000F003F9064A7B68136000238E
:10133C0000E0012318460837BD4680BD2000002080
:10134C00280000202400002080B400AF054B1B783F
:10135C001A46054B1B681344034A136000BFBD4675
:10136C0080BC704728000020EC00002080B400AF47
:10137C00024B1B681846BD4680BC7047EC00002031
:10138C0080B485B000AF78607B6803F00703FB6026
:10139C000C4BDB68BB60BA684FF6FF031340BB60B5
:1013AC00FB681A02BB68134343F0BF6343F400337A
:1013BC00BB60044ABB68D36000BF1437BD4680BC19
:1013CC00704700BF00ED00E080B400AF044BDB6859
:1013DC001B0A03F007031846BD4680BC704700BFCC
:1013EC0000ED00E080B483B000AF0346FB7197F9C9
:1013FC000730002B0BDBFB7903F01F02064997F932
:10140C0007305B09012000FA02F241F8232000BFEB
:10141C000C37BD4680BC704700E100E080B483B05F
:10142C0000AF03463960FB7197F90730002B0ADBDC
:10143C003B68DAB20C4997F907301201D2B20B446F
:10144C0083F800230AE03B68DAB20849FB7903F021
:10145C000F03043B1201D2B20B441A7600BF0C37B7
:10146C00BD4680BC704700BF00E100E000ED00E02D
:10147C0080B489B000AFF860B9607A60FB6803F0A3
:10148C000703FB61FB69C3F10703042B28BF04238B
:10149C00BB61FB690433062B02D9FB69033B00E0FB
:1014AC0000237B614FF0FF32BB6902FA03F3DA438E
:1014BC00BB681A407B699A404FF0FF317B6901FA97
:1014CC0003F3D9437B680B40134318462437BD46BE
:1014DC0080BC704780B582B000AF78607B68013B00
:1014EC00B3F1807F01D301230FE00A4A7B68013BF3
:1014FC0053600F214FF0FF30FFF790FF054B002298
:10150C009A60044B07221A60002318460837BD4620
:10151C0080BD00BF10E000E080B582B000AF786005
:10152C007868FFF72DFF00BF0837BD4680BD80B53A
:10153C0086B000AF0346B9607A60FB7300237B6111
:10154C00FFF742FF78617A68B9687869FFF790FF16
:10155C00024697F90F3011461846FFF75FFF00BFA0
:10156C001837BD4680BD80B582B000AF0346FB7115
:10157C0097F907301846FFF735FF00BF0837BD460F
:10158C0080BD80B582B000AF78607868FFF7A2FFAD
:10159C00034618460837BD4680BD000080B48BB0AA
:1015AC0000AF7860396000237B6200233B6261E10D
:1015BC0001227B6A02FA03F3FB613B681B68FA6940
:1015CC001340BB61BA69FB699A4240F050813B6899
:1015DC005B68974A93425ED0954A934275D8954A78
:1015EC00934258D0934A93426FD8934A934252D025
:1015FC00914A934269D8914A93424CD08F4A934274
:10160C0063D88F4A934246D08D4A93425DD8122BB1
:10161C002AD8122B59D801A252F823F0A31600088D
:10162C007D1600088F160008D1160008D716000882
:10163C00D7160008D7160008D7160008D7160008CA
:10164C00D7160008D7160008D7160008D7160008BA
:10165C00D7160008D7160008D7160008D7160008AA
:10166C008516000899160008764A934213D02CE090
:10167C003B68DB683B6229E03B68DB6804333B6218
:10168C0024E03B68DB6808333B621FE03B68DB68A7
:10169C000C333B621AE03B689B68002B02D104239D
:1016AC003B6213E03B689B68012B05D108233B622E
:1016BC007B68FA691A6109E008233B627B68FA6966
:1016CC005A6103E000233B6200E000BFBB69FF2BC3
:1016DC0001D87B6801E07B6804337B61BB69FF2B1D
:1016EC0002D87B6A9B0002E07B6A083B9B003B6153
:1016FC007B691A680F213B6901FA03F3DB431A403B
:10170C00396A3B6901FA03F31A437B691A603B6837
:10171C005B6803F08053002B00F0A9804A4B9B6957
:10172C00494A43F001039361474B9B6903F0010362
:10173C00BB60BB68454A7B6A9B08023352F8233076
:10174C00FB607B6A03F003039B000F2202FA03F396
:10175C00DB43FA681340FB607B683D4A93420DD033
:10176C007B683C4A934207D07B683B4A934201D149
:10177C00022304E0032302E0012300E000237A6A41
:10178C0002F0030292009340FA681343FB602F4966
:10179C007B6A9B080233FA6841F823203B685B683C
:1017AC0003F48033002B06D02C4B1A682B49BB69F1
:1017BC0013430B6006E0294B1A68BB69DB432749CE
:1017CC0013400B603B685B6803F40033002B06D0BE
:1017DC00224B5A682149BB6913434B6006E01F4BEF
:1017EC005A68BB69DB431D4913404B603B685B681F
:1017FC0003F48013002B06D0184B9A681749BB6969
:10180C0013438B6006E0154B9A68BB69DB431349A5
:10181C0013408B603B685B6803F40013002B1FD0F4
:10182C000E4BDA680D49BB691343CB601FE000BF58
:10183C0000003210000031100000221000002110B6
:10184C0000001210000011100010024000000140B6
:10185C0000080140000C0140001001400004014050
:10186C000B4BDA68BB69DB4309491340CB607B6ADD
:10187C0001337B623B681A687B6A22FA03F3002B04
:10188C007FF496AE00BF00BF2C37BD4680BC7047BE
:10189C000004014080B485B000AF78600B467B80BB
:1018AC007B689A687B881340002B02D00123FB7362
:1018BC0001E00023FB73FB7B18461437BD4680BC4C
:1018CC00704780B483B000AF78600B467B801346C2
:1018DC007B707B78002B03D07A887B681A6103E0DD
:1018EC007B881A047B681A6100BF0C37BD4680BC2C
:1018FC007047000080B586B000AF78607B68002B25
:10190C0001D1012372E27B681B6803F00103002BF9
:10191C0000F08780924B5B6803F00C03042B0CD017
:10192C008F4B5B6803F00C03082B12D18C4B5B685C
:10193C0003F48033B3F5803F0BD1894B1B6803F460
:10194C000033002B6CD07B685B68002B68D10123C3
:10195C004CE27B685B68B3F5803F06D1804B1B681B
:10196C007F4A43F4803313602EE07B685B68002B66
:10197C000CD17B4B1B687A4A23F480331360784B71
:10198C001B68774A23F4802313601DE07B685B6837
:10199C00B3F5A02F0CD1724B1B68714A43F4802312
:1019AC0013606F4B1B686E4A43F4803313600BE07B
:1019BC006B4B1B686A4A23F480331360684B1B68BB
:1019CC00674A23F4802313607B685B68002B13D079
:1019DC00FFF7CCFC386108E0FFF7C8FC02463B6916
:1019EC00D31A642B01D9032300E25D4B1B6803F46B
:1019FC000033002BF0D014E0FFF7B8FC386108E09E
:101A0C00FFF7B4FC02463B69D31A642B01D90323BC
:101A1C00ECE1534B1B6803F40033002BF0D100E0D6
:101A2C0000BF7B681B6803F00203002B63D04C4B98
:101A3C005B6803F00C03002B0BD0494B5B6803F085
:101A4C000C03082B1CD1464B5B6803F48033002B32
:101A5C0016D1434B1B6803F00203002B05D07B68A7
:101A6C001B69012B01D00123C0E13D4B1B6823F006
:101A7C00F8027B685B69DB00394913430B603AE081
:101A8C007B681B69002B20D0364B01221A60FFF7B4
:101A9C006DFC386108E0FFF769FC02463B69D31A1C
:101AAC00022B01D90323A1E12D4B1B6803F0020388
:101ABC00002BF0D02A4B1B6823F0F8027B685B6983
:101ACC00DB00274913430B6015E0264B00221A60FC
:101ADC00FFF74CFC386108E0FFF748FC02463B6915
:101AEC00D31A022B01D9032380E11D4B1B6803F091
:101AFC000203002BF0D17B681B6803F00803002B5A
:101B0C003AD07B689B69002B19D0174B01221A60C5
:101B1C00FFF72CFC386108E0FFF728FC02463B6914
:101B2C00D31A022B01D9032360E10D4B5B6A03F03E
:101B3C000203002BF0D0012000F0A6FA1CE00A4BA7
:101B4C0000221A60FFF712FC38610FE0FFF70EFC61
:101B5C0002463B69D31A022B08D9032346E100BF86
:101B6C00001002400000424280044242924B5B6AE9
:101B7C0003F00203002BE9D17B681B6803F004031C
:101B8C00002B00F0A6800023FB758B4BDB6903F068
:101B9C008053002B0DD1884BDB69874A43F080536F
:101BAC00D361854BDB6903F08053BB60BB680123B9
:101BBC00FB75824B1B6803F48073002B18D17F4B91
:101BCC001B687E4A43F480731360FFF7CFFB3861C8
:101BDC0008E0FFF7CBFB02463B69D31A642B01D913
:101BEC00032303E1754B1B6803F48073002BF0D0C7
:101BFC007B68DB68012B06D16F4B1B6A6E4A43F086
:101C0C00010313622DE07B68DB68002B0CD16A4B5F
:101C1C001B6A694A23F001031362674B1B6A664A0D
:101C2C0023F0040313621CE07B68DB68052B0CD1EA
:101C3C00614B1B6A604A43F0040313625E4B1B6AE0
:101C4C005D4A43F0010313620BE05B4B1B6A5A4A7B
:101C5C0023F001031362584B1B6A574A23F0040309
:101C6C0013627B68DB68002B15D0FFF77FFB3861B4
:101C7C000AE0FFF77BFB02463B69D31A41F288323C
:101C8C00934201D90323B1E04B4B1B6A03F00203CF
:101C9C00002BEED014E0FFF769FB38610AE0FFF788
:101CAC0065FB02463B69D31A41F28832934201D953
:101CBC0003239BE0404B1B6A03F00203002BEED185
:101CCC00FB7D012B05D13C4BDB693B4A23F0805358
:101CDC00D3617B68DB69002B00F08780364B5B6837
:101CEC0003F00C03082B61D07B68DB69022B46D117
:101CFC00334B00221A60FFF739FB386108E0FFF71D
:101D0C0035FB02463B69D31A022B01D903236DE044
:101D1C00294B1B6803F00073002BF0D17B681B6A06
:101D2C00B3F5803F08D1244B5B6823F400327B6809
:101D3C009B68214913434B601F4B5B6823F474125F
:101D4C007B68196A7B685B6A0B431B4913434B60C6
:101D5C001B4B01221A60FFF709FB386108E0FFF703
:101D6C0005FB02463B69D31A022B01D903233DE044
:101D7C00114B1B6803F00073002BF0D035E0104BB7
:101D8C0000221A60FFF7F2FA386108E0FFF7EEFA6A
:101D9C0002463B69D31A022B01D9032326E0064BDA
:101DAC001B6803F00073002BF0D11EE07B68DB692D
:101DBC00012B07D1012319E00010024000700040F4
:101DCC00600042420B4B5B68FB60FB6803F48032A3
:101DDC007B681B6A9A4206D1FB6803F470127B681D
:101DEC005B6A9A4201D0012300E0002318461837A1
:101DFC00BD4680BD0010024080B584B000AF786055
:101E0C0039607B68002B01D10123D0E06A4B1B6841
:101E1C0003F007033A689A4210D9674B1B6823F00A
:101E2C00070265493B6813430B60634B1B6803F067
:101E3C0007033A689A4201D00123B8E07B681B681B
:101E4C0003F00203002B20D07B681B6803F0040313
:101E5C00002B05D0594B5B68584A43F4E063536040
:101E6C007B681B6803F00803002B05D0534B5B68A1
:101E7C00524A43F460535360504B5B6823F0F002BA
:101E8C007B689B684D4913434B607B681B6803F070
:101E9C000103002B40D07B685B68012B07D1474BBB
:101EAC001B6803F40033002B15D101237FE07B6802
:101EBC005B68022B07D1414B1B6803F00073002BAE
:101ECC0009D1012373E03D4B1B6803F00203002B87
:101EDC0001D101236BE0394B5B6823F003027B6873
:101EEC005B68364913434B60FFF740FAF8600AE031
:101EFC00FFF73CFA0246FB68D31A41F28832934250
:101F0C0001D9032353E02D4B5B6803F00C027B6873
:101F1C005B689B009A42EBD1274B1B6803F00703CD
:101F2C003A689A4210D2244B1B6823F007022249CC
:101F3C003B6813430B60204B1B6803F007033A68A4
:101F4C009A4201D0012332E07B681B6803F0040342
:101F5C00002B08D0194B5B6823F4E0627B68DB68CC
:101F6C00164913434B607B681B6803F00803002B76
:101F7C0009D0124B5B6823F460527B681B69DB0051
:101F8C000E4913434B6000F021F802460B4B5B6883
:101F9C001B0903F00F030A49CB5C22FA03F3094A2D
:101FAC001360094B1B681846FFF79EF9002318466F
:101FBC001037BD4680BD00BF00200240001002401B
:101FCC0018290008200000202400002090B48AB0BA
:101FDC0000AF294B3C1D0FCB84E80F0040F20123CE
:101FEC003B800023FB610023BB6100237B62002349
:101FFC007B6100233B62214B5B68FB61FB6903F057
:10200C000C03042B02D0082B03D02BE01C4B3B629F
:10201C002BE0FB699B0C03F00F0328333B4413F8B4
:10202C00243C7B61FB6903F48033002B12D0134BEF
:10203C005B685B0C03F0010328333B4413F8283C2A
:10204C00BB617B690E4A03FB02F2BB69B2FBF3F383
:10205C007B6204E07B690B4A02FB03F37B627B6AC5
:10206C003B6202E0064B3B6200BF3B6A18462837D6
:10207C00BD4690BC704700BF082900080010024004
:10208C0000127A0000093D0080B485B000AF786082
:10209C000A4B1B680A4AA2FB03235B0A7A6802FB01
:1020AC0003F3FB6000BFFB685A1EFA60002BF9D1EA
:1020BC0000BF00BF1437BD4680BC70472000002015
:1020CC00D34D621080B582B000AF78607B68002B76
:1020DC0001D1012341E07B6893F83D30DBB2002B4A
:1020EC0006D17B68002283F83C207868FEF76CFFF1
:1020FC007B68022283F83D207B681A687B68043376
:10210C001946104600F06AFA7B68012283F84620D3
:10211C007B68012283F83E207B68012283F83F20F4
:10212C007B68012283F840207B68012283F84120E0
:10213C007B68012283F842207B68012283F84320CC
:10214C007B68012283F844207B68012283F84520B8
:10215C007B68012283F83D20002318460837BD46D2
:10216C0080BD000080B485B000AF78607B6893F8C8
:10217C003D30DBB2012B01D0012335E07B6802221C
:10218C0083F83D207B681B68DA687B681B6842F02B
:10219C000102DA607B681B68164A934209D07B689F
:1021AC001B68B3F1804F04D07B681B68124A9342C2
:1021BC0011D17B681B689B6803F00703FB60FB680D
:1021CC00062B10D07B681B681A687B681B6842F072
:1021DC0001021A6007E07B681B681A687B681B6841
:1021EC0042F001021A60002318461437BD4680BC29
:1021FC00704700BF002C01400004004080B582B045
:10220C0000AF78607B681B681B6903F00203022B2C
:10221C0022D17B681B68DB6803F00203022B1BD105
:10222C007B681B686FF002021A617B6801221A77C7
:10223C007B681B689B6903F00303002B03D0786851
:10224C0000F0B1F905E0786800F0A4F9786800F0C6
:10225C00B3F97B6800221A777B681B681B6903F053
:10226C000403042B22D17B681B68DB6803F0040396
:10227C00042B1BD17B681B686FF004021A617B680E
:10228C0002221A777B681B689B6903F44073002B4E
:10229C0003D0786800F087F905E0786800F07AF9E7
:1022AC00786800F089F97B6800221A777B681B68D4
:1022BC001B6903F00803082B22D17B681B68DB68C1
:1022CC0003F00803082B1BD17B681B686FF0080216
:1022DC001A617B6804221A777B681B68DB6903F040
:1022EC000303002B03D0786800F05DF905E07868F3
:1022FC0000F050F9786800F05FF97B6800221A77DB
:10230C007B681B681B6903F01003102B22D17B68C0
:10231C001B68DB6803F01003102B1BD17B681B6858
:10232C006FF010021A617B6808221A777B681B68B1
:10233C00DB6903F44073002B03D0786800F033F9A9
:10234C0005E0786800F026F9786800F035F97B68CC
:10235C0000221A777B681B681B6903F00103012BB1
:10236C000ED17B681B68DB6803F00103012B07D1DE
:10237C007B681B686FF001021A617868FEF7D6FD66
:10238C007B681B681B6903F08003802B0ED17B6874
:10239C001B68DB6803F08003802B07D17B681B680C
:1023AC006FF080021A61786800F067FA7B681B682E
:1023BC001B6903F04003402B0ED17B681B68DB6864
:1023CC0003F04003402B07D17B681B686FF0400281
:1023DC001A61786800F0F9F87B681B681B6903F0D8
:1023EC002003202B0ED17B681B68DB6803F02003D5
:1023FC00202B07D17B681B686FF020021A6178686C
:10240C0000F032FA00BF0837BD4680BD80B584B0FD
:10241C0000AF786039607B6893F83C30012B01D1B8
:10242C000223B3E07B68012283F83C207B68022204
:10243C0083F83D207B681B689B68FB60FB6823F07E
:10244C007703FB60FB6823F47F43FB607B681B68AE
:10245C00FA689A603B681B68B3F5005F3ED0B3F531
:10246C00005F00F28780B3F5805F00F08580B3F5E4
:10247C00805F7FD8702B1AD0702B7BD8602B50D0FC
:10248C00602B77D8502B3CD0502B73D8402B58D086
:10249C00402B6FD8302B64D0302B6BD8202B60D0D6
:1024AC00202B67D8002B5CD0102B5AD062E07B68B5
:1024BC0018683B6899683B685A683B68DB6800F0B1
:1024CC005CF97B681B689B68FB60FB6843F07703D7
:1024DC00FB607B681B68FA689A604EE07B68186842
:1024EC003B6899683B685A683B68DB6800F045F9C3
:1024FC007B681B689A687B681B6842F480429A6010
:10250C003BE07B6818683B6859683B68DB681A4697
:10251C0000F0BCF87B681B685021184600F013F9DA
:10252C002BE07B6818683B6859683B68DB681A4687
:10253C0000F0DAF87B681B686021184600F003F99C
:10254C001BE07B6818683B6859683B68DB681A4677
:10255C0000F09CF87B681B684021184600F0F3F8EB
:10256C000BE07B681A683B681B681946104600F044
:10257C00EAF802E000BF00E000BF7B68012283F8AC
:10258C003D207B68002283F83C200023184610373E
:10259C00BD4680BD80B483B000AF786000BF0C37FF
:1025AC00BD4680BC704780B483B000AF786000BF7C
:1025BC000C37BD4680BC704780B483B000AF7860E8
:1025CC0000BF0C37BD4680BC704780B483B000AFF1
:1025DC00786000BF0C37BD4680BC704780B485B0B6
:1025EC0000AF786039607B681B68FB607B68254AAC
:1025FC00934207D07B68B3F1804F03D07B68224AAB
:10260C00934208D1FB6823F07003FB603B685B6866
:10261C00FA681343FB607B681A4A934207D07B68C5
:10262C00B3F1804F03D07B68174A934208D1FB6803
:10263C0023F44073FB603B68DB68FA681343FB6070
:10264C00FB6823F080023B685B691343FB607B688B
:10265C00FA681A603B689A687B68DA623B681A68A9
:10266C007B689A627B68074A934203D13B681A697C
:10267C007B681A637B6801225A6100BF1437BD4620
:10268C0080BC7047002C01400004004080B487B02F
:10269C0000AFF860B9607A60FB681B6A7B61FB680D
:1026AC001B6A23F00102FB681A62FB689B693B61A1
:1026BC003B6923F0F0033B617B681B013A691343D0
:1026CC003B617B6923F00A037B617A69BB68134326
:1026DC007B61FB683A699A61FB687A691A6200BF90
:1026EC001C37BD4680BC704780B487B000AFF86023
:1026FC00B9607A60FB681B6A23F01002FB681A62EF
:10270C00FB689B697B61FB681B6A3B617B6923F4FB
:10271C0070437B617B681B037A6913437B613B6964
:10272C0023F0A0033B61BB681B013A6913433B6177
:10273C00FB687A699A61FB683A691A6200BF1C37B8
:10274C00BD4680BC704780B485B000AF78603960FE
:10275C007B689B68FB60FB6823F07003FB603A6846
:10276C00FB68134343F00703FB607B68FA689A60CD
:10277C0000BF1437BD4680BC704780B487B000AF33
:10278C00F860B9607A603B60FB689B687B617B6931
:10279C0023F47F437B613B681A027B681A43BB6856
:1027AC0013437A6913437B61FB687A699A6000BFB3
:1027BC001C37BD4680BC704780B485B000AF7860D4
:1027CC0039607B6893F83C30012B01D1022341E046
:1027DC007B68012283F83C207B68022283F83D2031
:1027EC007B681B685B68FB607B681B689B68BB60D5
:1027FC00FB6823F07003FB603B681B68FA681343AB
:10280C00FB607B681B68FA685A607B681B68144A1B
:10281C00934209D07B681B68B3F1804F04D07B686E
:10282C001B68104A93420CD1BB6823F08003BB6039
:10283C003B685B68BA681343BB607B681B68BA680B
:10284C009A607B68012283F83D207B68002283F824
:10285C003C20002318461437BD4680BC704700BF8F
:10286C00002C01400004004080B483B000AF7860BD
:10287C0000BF0C37BD4680BC704780B483B000AF3E
:10288C00786000BF0C37BD4680BC704703460244DD
:10289C00934200D1704703F8011BF9E770B500268D
:1028AC000C4D0D4C641BA410A64209D100F01AF873
:1028BC0000260A4D0A4C641BA410A64205D170BD1B
:1028CC0055F8043B98470136EEE755F8043B98471A
:1028DC000136F2E7282900082829000828290008D1
:1028EC002C290008F8B500BFF8BC08BC9E46704700
:0C28FC00F8B500BFF8BC08BC9E46704751
:1029080002030405060708090A0B0C0D0E0F101028
:102918000000000000000000010203040607080987
:042928003101000871
:04292C000D01000891
:10293000225B6001225B600164000000E80300008C
:102940000A000000BC020000070000002C0100008B
:0C2950000024F400100000000100000052
:040000050800127D60
:00000001FF
